{
  "contractName": "Freelancer",
  "abi": [
    {
      "inputs": [],
      "stateMutability": "nonpayable",
      "type": "constructor"
    },
    {
      "anonymous": false,
      "inputs": [
        {
          "indexed": false,
          "internalType": "uint256",
          "name": "packageId",
          "type": "uint256"
        },
        {
          "indexed": false,
          "internalType": "address",
          "name": "client",
          "type": "address"
        },
        {
          "indexed": false,
          "internalType": "uint256",
          "name": "amount",
          "type": "uint256"
        }
      ],
      "name": "PackageHired",
      "type": "event"
    },
    {
      "anonymous": false,
      "inputs": [
        {
          "indexed": false,
          "internalType": "uint256",
          "name": "packageId",
          "type": "uint256"
        },
        {
          "indexed": false,
          "internalType": "address",
          "name": "freelancer",
          "type": "address"
        },
        {
          "indexed": false,
          "internalType": "uint256",
          "name": "amount",
          "type": "uint256"
        }
      ],
      "name": "PaymentApproved",
      "type": "event"
    },
    {
      "inputs": [
        {
          "internalType": "uint256",
          "name": "",
          "type": "uint256"
        }
      ],
      "name": "clients",
      "outputs": [
        {
          "internalType": "address",
          "name": "",
          "type": "address"
        }
      ],
      "stateMutability": "view",
      "type": "function",
      "constant": true
    },
    {
      "inputs": [
        {
          "internalType": "uint256",
          "name": "",
          "type": "uint256"
        }
      ],
      "name": "escrows",
      "outputs": [
        {
          "internalType": "uint256",
          "name": "amount",
          "type": "uint256"
        },
        {
          "internalType": "bool",
          "name": "exists",
          "type": "bool"
        }
      ],
      "stateMutability": "view",
      "type": "function",
      "constant": true
    },
    {
      "inputs": [],
      "name": "nextPackageId",
      "outputs": [
        {
          "internalType": "uint256",
          "name": "",
          "type": "uint256"
        }
      ],
      "stateMutability": "view",
      "type": "function",
      "constant": true
    },
    {
      "inputs": [],
      "name": "owner",
      "outputs": [
        {
          "internalType": "address",
          "name": "",
          "type": "address"
        }
      ],
      "stateMutability": "view",
      "type": "function",
      "constant": true
    },
    {
      "inputs": [
        {
          "internalType": "uint256",
          "name": "",
          "type": "uint256"
        }
      ],
      "name": "packages",
      "outputs": [
        {
          "internalType": "uint256",
          "name": "id",
          "type": "uint256"
        },
        {
          "internalType": "address",
          "name": "freelancer",
          "type": "address"
        },
        {
          "internalType": "string",
          "name": "title",
          "type": "string"
        },
        {
          "internalType": "string",
          "name": "category",
          "type": "string"
        },
        {
          "internalType": "string",
          "name": "image",
          "type": "string"
        },
        {
          "internalType": "uint256",
          "name": "cost",
          "type": "uint256"
        }
      ],
      "stateMutability": "view",
      "type": "function",
      "constant": true
    },
    {
      "inputs": [
        {
          "internalType": "uint256",
          "name": "_id",
          "type": "uint256"
        }
      ],
      "name": "hire",
      "outputs": [],
      "stateMutability": "payable",
      "type": "function",
      "payable": true
    },
    {
      "inputs": [
        {
          "internalType": "uint256",
          "name": "_id",
          "type": "uint256"
        }
      ],
      "name": "approvePayment",
      "outputs": [],
      "stateMutability": "nonpayable",
      "type": "function"
    },
    {
      "inputs": [
        {
          "internalType": "uint256",
          "name": "_id",
          "type": "uint256"
        }
      ],
      "name": "getEscrowAmount",
      "outputs": [
        {
          "internalType": "uint256",
          "name": "",
          "type": "uint256"
        }
      ],
      "stateMutability": "view",
      "type": "function",
      "constant": true
    }
  ],
  "bytecode": "0x6080604052600180553480156200001557600080fd5b5060008054336001600160a01b03199182161782556040805160c08101825260018082527304b56f34b5c55a7a3b37b7a4672bbaed787657eb60208084019182528451808601865260118152702bb2b1102232bb32b637b836b2b73a101960791b818301528486019081528551808701875260078152663bb2b116b232bb60c91b8184015260608601528551808701909652601c8652600080516020620012ab833981519152868301526080850195909552670de0b6b3a764000060a0850152919095526002905280517fe90b7bceb6e7df5418fb78d8ee546e97c83a08bbccc01a0644d599ccd2a7c2e090815593517fe90b7bceb6e7df5418fb78d8ee546e97c83a08bbccc01a0644d599ccd2a7c2e180549094166001600160a01b0390911617909255519091907fe90b7bceb6e7df5418fb78d8ee546e97c83a08bbccc01a0644d599ccd2a7c2e2906200016c90826200056c565b50606082015160038201906200018390826200056c565b50608082015160048201906200019a90826200056c565b5060a091820151600591909101556040805160c08101825260028082527317819b9a9144a9f4f19e706a4ba97f8032338d74602080840191825284518086018652601181527057656220446576656c6f706d656e742d3160781b818301528486019081528551808701875260078152663bb2b116b232bb60c91b8184015260608601528551808701909652601c8652600080516020620012ab8339815191528683015260808501959095526706f05b59d3b20000958401959095526000829052935280517f679795a0195a1b76cdebb7c51d74e058aee92919b8c3389af86ef24535e8a28c90815592517f679795a0195a1b76cdebb7c51d74e058aee92919b8c3389af86ef24535e8a28d80546001600160a01b0319166001600160a01b0390921691909117905590519091907f679795a0195a1b76cdebb7c51d74e058aee92919b8c3389af86ef24535e8a28e90620002f590826200056c565b50606082015160038201906200030c90826200056c565b50608082015160048201906200032390826200056c565b5060a091820151600591909101556040805160c081018252600380825273a9905aa74aa0a3518b0de3df52dc87cd9b58ef5e602080840191825284518086018652600f81526e15d9588811195d995b1bdc1b595b9d608a1b818301528486019081528551808701875260078152663bb2b116b232bb60c91b8184015260608601528551808701909652601c8652600080516020620012ab833981519152868301526080850195909552670429d069189e000095840195909552600091909152600290935280517f88601476d11616a71c5be67555bd1dff4b1cbf21533d2669b768b61518cfe1c390815592517f88601476d11616a71c5be67555bd1dff4b1cbf21533d2669b768b61518cfe1c480546001600160a01b0319166001600160a01b0390921691909117905590519091907f88601476d11616a71c5be67555bd1dff4b1cbf21533d2669b768b61518cfe1c5906200048090826200056c565b50606082015160038201906200049790826200056c565b5060808201516004820190620004ae90826200056c565b5060a09190910151600590910155600460015562000638565b634e487b7160e01b600052604160045260246000fd5b600181811c90821680620004f257607f821691505b6020821081036200051357634e487b7160e01b600052602260045260246000fd5b50919050565b601f8211156200056757600081815260208120601f850160051c81016020861015620005425750805b601f850160051c820191505b8181101562000563578281556001016200054e565b5050505b505050565b81516001600160401b03811115620005885762000588620004c7565b620005a081620005998454620004dd565b8462000519565b602080601f831160018114620005d85760008415620005bf5750858301515b600019600386901b1c1916600185901b17855562000563565b600085815260208120601f198616915b828110156200060957888601518255948401946001909101908401620005e8565b5085821015620006285787850151600019600388901b60f8161c191681555b5050505050600190811b01905550565b610c6380620006486000396000f3fe60806040526004361061007b5760003560e01c8063c4a74b2b1161004e578063c4a74b2b14610176578063d7da9e4f1461018b578063de14c818146101a1578063f88af21d146101c157600080fd5b8063012f52ee14610080578063451ee191146100d15780638da5cb5b1461010c578063c216212a14610144575b600080fd5b34801561008c57600080fd5b506100b761009b366004610b30565b6003602052600090815260409020805460019091015460ff1682565b604080519283529015156020830152015b60405180910390f35b3480156100dd57600080fd5b506100fe6100ec366004610b30565b60009081526003602052604090205490565b6040519081526020016100c8565b34801561011857600080fd5b5060005461012c906001600160a01b031681565b6040516001600160a01b0390911681526020016100c8565b34801561015057600080fd5b5061016461015f366004610b30565b6101f7565b6040516100c896959493929190610b8f565b610189610184366004610b30565b6103cf565b005b34801561019757600080fd5b506100fe60015481565b3480156101ad57600080fd5b506101896101bc366004610b30565b610764565b3480156101cd57600080fd5b5061012c6101dc366004610b30565b6004602052600090815260409020546001600160a01b031681565b600260208190526000918252604090912080546001820154928201805491936001600160a01b0316929161022a90610bf3565b80601f016020809104026020016040519081016040528092919081815260200182805461025690610bf3565b80156102a35780601f10610278576101008083540402835291602001916102a3565b820191906000526020600020905b81548152906001019060200180831161028657829003601f168201915b5050505050908060030180546102b890610bf3565b80601f01602080910402602001604051908101604052809291908181526020018280546102e490610bf3565b80156103315780601f1061030657610100808354040283529160200191610331565b820191906000526020600020905b81548152906001019060200180831161031457829003601f168201915b50505050509080600401805461034690610bf3565b80601f016020809104026020016040519081016040528092919081815260200182805461037290610bf3565b80156103bf5780601f10610394576101008083540402835291602001916103bf565b820191906000526020600020905b8154815290600101906020018083116103a257829003601f168201915b5050505050908060050154905086565b6000818152600260208181526040808420815160c0810183528154815260018201546001600160a01b03169381019390935292830180549293929184019161041690610bf3565b80601f016020809104026020016040519081016040528092919081815260200182805461044290610bf3565b801561048f5780601f106104645761010080835404028352916020019161048f565b820191906000526020600020905b81548152906001019060200180831161047257829003601f168201915b505050505081526020016003820180546104a890610bf3565b80601f01602080910402602001604051908101604052809291908181526020018280546104d490610bf3565b80156105215780601f106104f657610100808354040283529160200191610521565b820191906000526020600020905b81548152906001019060200180831161050457829003601f168201915b5050505050815260200160048201805461053a90610bf3565b80601f016020809104026020016040519081016040528092919081815260200182805461056690610bf3565b80156105b35780601f10610588576101008083540402835291602001916105b3565b820191906000526020600020905b81548152906001019060200180831161059657829003601f168201915b5050509183525050600591909101546020918201528101519091506001600160a01b03166106215760405162461bcd60e51b8152602060048201526016602482015275141858dad859d948191bd95cc81b9bdd08195e1a5cdd60521b60448201526064015b60405180910390fd5b8060a0015134146106745760405162461bcd60e51b815260206004820152601b60248201527f53656e6420746865206578616374207061636b61676520636f737400000000006044820152606401610618565b60008281526003602052604090206001015460ff16156106ce5760405162461bcd60e51b8152602060048201526015602482015274141858dad859d948185b1c9958591e481a1a5c9959605a1b6044820152606401610618565b604080518082018252348082526001602080840182815260008881526003835286812095518655905194909201805494151560ff19909516949094179093556004835283902080546001600160a01b031916339081179091558351868152928301528183015290517f47efa08fbbb7082928f151067f8a571629e9174cf4be9c5c95a967e8a896a8a29181900360600190a15050565b60008181526003602052604090206001015460ff166107cf5760405162461bcd60e51b815260206004820152602160248201527f4e6f20657363726f772065786973747320666f722074686973207061636b61676044820152606560f81b6064820152608401610618565b6000818152600460205260409020546001600160a01b0316331461085b5760405162461bcd60e51b815260206004820152603a60248201527f4f6e6c792074686520636c69656e742077686f2068697265642074686973207060448201527f61636b6167652063616e20617070726f7665207061796d656e740000000000006064820152608401610618565b6000818152600260208181526040808420815160c0810183528154815260018201546001600160a01b0316938101939093529283018054929392918401916108a290610bf3565b80601f01602080910402602001604051908101604052809291908181526020018280546108ce90610bf3565b801561091b5780601f106108f05761010080835404028352916020019161091b565b820191906000526020600020905b8154815290600101906020018083116108fe57829003601f168201915b5050505050815260200160038201805461093490610bf3565b80601f016020809104026020016040519081016040528092919081815260200182805461096090610bf3565b80156109ad5780601f10610982576101008083540402835291602001916109ad565b820191906000526020600020905b81548152906001019060200180831161099057829003601f168201915b505050505081526020016004820180546109c690610bf3565b80601f01602080910402602001604051908101604052809291908181526020018280546109f290610bf3565b8015610a3f5780601f10610a1457610100808354040283529160200191610a3f565b820191906000526020600020905b815481529060010190602001808311610a2257829003601f168201915b5050509183525050600591909101546020918201526000848152600380835260408083208054825180840184528581528087018681528a875294875251825592516001909101805460ff1916911515919091179055928401519251939450926001600160a01b03909216916108fc84150291849190818181858888f19350505050158015610ad1573d6000803e3d6000fd5b507f0803deed35188b93d8ce36327912757bc01e378ca30fd0b7238d061bfb60664083836020015183604051610b23939291909283526001600160a01b03919091166020830152604082015260600190565b60405180910390a1505050565b600060208284031215610b4257600080fd5b5035919050565b6000815180845260005b81811015610b6f57602081850181015186830182015201610b53565b506000602082860101526020601f19601f83011685010191505092915050565b8681526001600160a01b038616602082015260c060408201819052600090610bb990830187610b49565b8281036060840152610bcb8187610b49565b90508281036080840152610bdf8186610b49565b9150508260a0830152979650505050505050565b600181811c90821680610c0757607f821691505b602082108103610c2757634e487b7160e01b600052602260045260246000fd5b5091905056fea2646970667358221220e61f907bf4e8bafe625294f69b4fe872057f011ee7120b427386c9445c96d6e064736f6c6343000814003368747470733a2f2f74696e7975726c2e636f6d2f6264686b7939666300000000",
  "immutableReferences": {},
  "source": "// SPDX-License-Identifier: UNLICENSED\r\npragma solidity ^0.8.20;\r\n\r\ncontract Freelancer {\r\n    address public owner;\r\n    uint256 public nextPackageId = 1;\r\n\r\n    struct Package {\r\n        uint256 id;\r\n        address freelancer;\r\n        string title;\r\n        string category;\r\n        string image;\r\n        uint256 cost;\r\n    }\r\n\r\n    struct Escrow {\r\n        uint256 amount;\r\n        bool exists;\r\n    }\r\n\r\n    mapping(uint256 => Package) public packages;\r\n    mapping(uint256 => Escrow) public escrows;\r\n    mapping(uint256 => address) public clients;\r\n\r\n    event PackageHired(uint256 packageId, address client, uint256 amount);\r\n    event PaymentApproved(uint256 packageId, address freelancer, uint256 amount);\r\n\r\n    modifier onlyOwner() {\r\n        require(msg.sender == owner, \"Only owner can call this function\");\r\n        _;\r\n    }\r\n\r\n    constructor() {\r\n        owner = msg.sender;\r\n\r\n        packages[1] = Package(\r\n            1,\r\n            0x04B56F34B5c55a7A3B37B7a4672BbAeD787657eb,\r\n            \"Web Development 2\",\r\n            \"web-dev\",\r\n            \"https://tinyurl.com/bdhky9fc\", \r\n            1 ether\r\n        );\r\n\r\n        packages[2] = Package(\r\n            2,\r\n            0x17819B9a9144A9F4f19e706a4BA97f8032338D74,\r\n            \"Web Development-1\",\r\n            \"web-dev\",\r\n            \"https://tinyurl.com/bdhky9fc\",\r\n            0.5 ether\r\n        );\r\n\r\n        packages[3] = Package(\r\n            3,\r\n            0xA9905AA74AA0a3518b0De3DF52dc87cD9B58Ef5E,\r\n            \"Web Development\",\r\n            \"web-dev\",\r\n            \"https://tinyurl.com/bdhky9fc\", \r\n            0.3 ether\r\n        );\r\n\r\n        nextPackageId = 4;\r\n    }\r\n\r\n    function hire(uint256 _id) public payable {\r\n        Package memory package = packages[_id];\r\n        require(package.freelancer != address(0), \"Package does not exist\");\r\n        require(msg.value == package.cost, \"Send the exact package cost\");\r\n        require(!escrows[_id].exists, \"Package already hired\");\r\n\r\n        escrows[_id] = Escrow(msg.value, true);\r\n        clients[_id] = msg.sender;\r\n\r\n        emit PackageHired(_id, msg.sender, msg.value);\r\n    }\r\n\r\n    function approvePayment(uint256 _id) public {\r\n        require(escrows[_id].exists, \"No escrow exists for this package\");\r\n        require(msg.sender == clients[_id], \"Only the client who hired this package can approve payment\");\r\n\r\n        Package memory package = packages[_id];\r\n        uint256 amount = escrows[_id].amount;\r\n\r\n        escrows[_id] = Escrow(0, false);\r\n        payable(package.freelancer).transfer(amount);\r\n\r\n        emit PaymentApproved(_id, package.freelancer, amount);\r\n    }\r\n\r\n    function getEscrowAmount(uint256 _id) public view returns (uint256) {\r\n        return escrows[_id].amount;\r\n    }\r\n}",
  "sourcePath": "C:\\DeWork\\contracts\\freelancer.sol",
  "compiler": {
    "name": "solc",
    "version": "0.8.20+commit.a1b79de6.Emscripten.clang"
  },
  "schemaVersion": "3.4.16",
  "updatedAt": "2025-05-29T15:54:12.184Z",
  "networkType": "ethereum",
  "devdoc": {
    "kind": "dev",
    "methods": {},
    "version": 1
  },
  "userdoc": {
    "kind": "user",
    "methods": {},
    "version": 1
  }
}